:100000000C9456000C946B000C946B000C946B00D9
:100010000C946B000C946B000C946B000C946B00B4
:100020000C946B000C946B000C946B000C946B00A4
:100030000C946B000C946B000C946B000C946B0094
:100040000C946B000C946B000C946B000C946B0084
:100050000C946B000C946B000C946B000C946B0074
:100060000C946B000C946B000C946B000C946B0064
:100070000C946B000C946B000C946B000C946B0054
:100080000C946B000C946B000C946B000C946B0044
:100090000C946B000C946B000C946B000C946B0034
:1000A0000C946B000C946B000C946B0011241FBE1D
:1000B000CFEFDAE0DEBFCDBF11E0A0E0B1E0EAE3D0
:1000C000F4E102C005900D92A432B107D9F70E9465
:1000D000A2070C941B0A0C940000CF93DF93CDB7BA
:1000E000DEB788EB90E02CE0FC0120830000DF917C
:1000F000CF910895CF93DF9300D0CDB7DEB78A8339
:100100008CEB90E024EAFC01208300008CEB90E073
:10011000FC0180818823D4F789EB90E0FC01808189
:10012000887F89838981883029F08981803111F025
:1001300081E020C08BEB90E02A81FC0120838CEBD6
:1001400090E024E8FC01208300008CEB90E0FC01AF
:1001500080818823D4F789EB90E0FC018081887F3F
:1001600089838981883129F08981803411F081E087
:1001700001C080E00F900F90DF91CF910895CF9351
:10018000DF9300D0CDB7DEB78A838CEB90E0FC0123
:1001900010828CEB90E024EAFC01208300008CEBC1
:1001A00090E0FC0180818823D4F789EB90E0FC018A
:1001B0008081882F90E0887F9927089711F081E04F
:1001C00020C08BEB90E02A81FC0120838CEB90E037
:1001D00024E8FC01208300008CEB90E0FC0180818E
:1001E0008823D4F789EB90E0FC018081887F8983A4
:1001F0008981883129F08981803411F081E001C042
:1002000080E00F900F90DF91CF910895CF93DF930F
:1002100000D0CDB7DEB78A838CEB90E024EAFC01F6
:10022000208300008CEB90E0FC0180818823D4F7D0
:1002300089EB90E0FC018081887F89838981883007
:1002400019F08981803171F58BEB90E02A81FC01F6
:1002500020838CEB90E024E8FC01208300008CEBF1
:1002600090E0FC0180818823D4F789EB90E0FC01C9
:100270008081887F89838981803219F089818835DE
:1002800099F48CEB90E024E9FC01208300008CEBD6
:1002900090E0FC018081882F90E080719927892B64
:1002A000B1F701C00000B8CF000000000F900F9020
:1002B000DF91CF910895CF93DF931F92CDB7DEB733
:1002C000898389810E947A000F90DF91CF910895F0
:1002D000CF93DF93CDB7DEB78CEB90E024E9FC0140
:1002E000208300008CEB90E0FC018081882F90E05F
:1002F00080719927892BB1F70000DF91CF91089584
:10030000CF93DF9300D0CDB7DEB78A838BEB90E03D
:100310002A81FC0120838CEB90E024E8FC012083FF
:1003200000008CEB90E0FC0180818823D4F789EBFE
:1003300090E0FC018081887F89838981883211F077
:1003400081E001C080E00F900F90DF91CF91089580
:10035000CF93DF93CDB7DEB78CEB90E024ECFC01BC
:10036000208300008CEB90E0FC0180818823D4F78F
:100370008BEB90E0FC018081DF91CF910895CF93CA
:10038000DF93CDB7DEB78CEB90E024E8FC0120834F
:1003900000008CEB90E0FC0180818823D4F78BEB8C
:1003A00090E0FC018081DF91CF910895CF93DF939E
:1003B000CDB7DEB7AA970FB6F894DEBF0FBECDBF9C
:1003C0000E946D0080E090E0A0EAB1E48D8F9E8FE6
:1003D000AF8FB8A320E030E04AE755E46D8D7E8D05
:1003E0008F8D98A10E946E09DC01CB0189A39AA38D
:1003F000ABA3BCA320E030E040E85FE369A17AA1B1
:100400008BA19CA10E944E0888232CF481E090E0EF
:100410009EA38DA33FC020E03FEF4FE757E469A1C3
:100420007AA18BA19CA10E94690918164CF520E0C5
:1004300030E040E251E46D8D7E8D8F8D98A10E9459
:100440006E09DC01CB01BC01CD010E94C508DC01B5
:10045000CB019EA38DA30FC080E991E098A78FA345
:100460008FA198A50197F1F798A78FA38DA19EA1C1
:1004700001979EA38DA38DA19EA1892B69F714C01E
:1004800069A17AA18BA19CA10E94C508DC01CB01C6
:100490009EA38DA38DA19EA19AA789A789A59AA5A0
:1004A0000197F1F79AA789A78EE40E947A0080E06D
:1004B0000E9480010E94680180E090E0A0E8B1E421
:1004C0008F87988BA98BBA8B20E030E04AE755E400
:1004D0006F85788989899A890E946E09DC01CB0130
:1004E0008B8B9C8BAD8BBE8B20E030E040E85FE3D4
:1004F0006B897C898D899E890E944E0888232CF403
:1005000081E090E0988F8F8B3FC020E03FEF4FE776
:1005100057E46B897C898D899E890E946909181628
:100520004CF520E030E040E251E46F85788989891C
:100530009A890E946E09DC01CB01BC01CD010E94A9
:10054000C508DC01CB01988F8F8B0FC080E991E04B
:100550009A8F898F898D9A8D0197F1F79A8F898F5C
:100560008F89988D0197988F8F8B8F89988D892B84
:1005700069F714C06B897C898D899E890E94C508A2
:10058000DC01CB01988F8F8B8F89988D9C8F8B8FFF
:100590008B8D9C8D0197F1F79C8F8B8F83E30E944D
:1005A0005C0382E30E945C0388E20E945C038CE0AF
:1005B0000E945C0386E00E945C0381E00E945C0371
:1005C00080E090E0A0EAB1E489839A83AB83BC83A6
:1005D00020E030E04AE755E469817A818B819C8193
:1005E0000E946E09DC01CB018D839E83AF83B887A7
:1005F00020E030E040E85FE36D817E818F81988567
:100600000E944E0888232CF481E090E09A87898725
:100610003FC020E03FEF4FE757E46D817E818F813F
:1006200098850E94690918164CF520E030E040E2F8
:1006300051E469817A818B819C810E946E09DC0181
:10064000CB01BC01CD010E94C508DC01CB019A871A
:1006500089870FC080E991E09C878B878B859C857B
:100660000197F1F79C878B8789859A8501979A87EF
:10067000898789859A85892B69F714C06D817E8168
:100680008F8198850E94C508DC01CB019A878987F4
:1006900089859A859E878D878D859E850197F1F73F
:1006A0009E878D870000AA960FB6F894DEBF0FBE16
:1006B000CDBFDF91CF910895CF93DF9300D0CDB719
:1006C000DEB78A838A81807F8C5F89838EE40E9473
:1006D0007A0089810E94800189818B7F8983898149
:1006E0000E9480018A818295807F8C5F89838981C5
:1006F0000E94800189818B7F898389810E9480018A
:100700000E94680100000F900F90DF91CF91089533
:10071000CF93DF9300D0CDB7DEB78A838A81807F05
:100720008B5F89838EE40E947A0089810E94800118
:1007300089818B7F898389810E9480018A8182954A
:10074000807F8B5F898389810E94800189818B7F73
:10075000898389810E9480010E94680100000F90B6
:100760000F90DF91CF910895CF93DF9300D01F9228
:10077000CDB7DEB79B838A83198213C0898180310C
:1007800011F40E941C048981882F90E02A813B810A
:10079000820F931FFC0180810E94880389818F5FF3
:1007A00089838981882F90E02A813B81820F931F62
:1007B000FC018081882311F700000F900F900F90AB
:1007C000DF91CF910895CF93DF9300D000D0CDB7C4
:1007D000DEB79A8389837C836B8389819A810397AF
:1007E00010F080E022C08B819C81419710F080E066
:1007F0001CC08B819C81892B21F089819A81892B56
:1008000011F480E012C089819A81019729F48B81CB
:1008100081580E945C0308C089819A81029721F463
:100820008B8181540E945C0381E00F900F900F90A8
:100830000F90DF91CF910895CF93DF93CDB7DEB7BF
:1008400080EC0E945C030000DF91CF910895CF936C
:10085000DF93CDB7DEB7C857D1090FB6F894DEBF26
:100860000FBECDBFCE018C5B9F4F25E0FC01322F28
:1008700011923A95E9F71B8284E290E020E8FC01AE
:10088000208385E290E0FC01108280E090EAACE8F1
:10089000B6E48C839D83AE83BF832BEA3AEA4AEAAF
:1008A00050E46C817D818E819F810E946E09DC0104
:1008B000CB0188879987AA87BB8720E030E040E892
:1008C00050E46C817D818E819F810E946E09DC01E4
:1008D000CB018C879D87AE87BF8720E030E040E862
:1008E0005FE3688579858A859B850E944E08882309
:1008F0001CF481E0888BB2C020E03FEF4FE757E463
:100900006C857D858E859F850E94690918160CF07F
:100910007BC020E030E04AE754E46C817D818E8129
:100920009F810E945308DC01CB01898B9A8BAB8B92
:10093000BC8B20E030E04AE755E469897A898B89ED
:100940009C890E946E09DC01CB018D8B9E8BAF8B45
:10095000B88F20E030E040E85FE36D897E898F89C1
:10096000988D0E944E0888232CF481E090E09A8FA5
:10097000898F3FC020E03FEF4FE757E46D897E89C4
:100980008F89988D0E94690918164CF520E030E097
:1009900040E251E469897A898B899C890E946E09B9
:1009A000DC01CB01BC01CD010E94C508DC01CB01FB
:1009B0009A8F898F0FC080E991E09C8F8B8F8B8DF0
:1009C0009C8D0197F1F79C8F8B8F898D9A8D019764
:1009D0009A8F898F898D9A8D892B69F73FC06D8990
:1009E0007E898F89988D0E94C508DC01CB019A8F82
:1009F000898F898D9A8D9E8F8D8F8D8D9E8D01977C
:100A0000F1F79E8F8D8F2AC020E030E04FE753E44E
:100A1000688579858A859B850E9469091816ACF4DA
:100A20006C857D858E859F850E94C508DC01CB0184
:100A300098A38F8F8F8D98A19AA389A389A19AA13A
:100A40000197F1F79AA389A30FC0688579858A85F4
:100A50009B850E94C508DC01CB01888B88898BA30C
:100A60008BA18A95F1F78BA384E290E0FC011082C0
:100A7000000083E290E0FC0180818823D4F3000031
:100A800083E290E0FC0180818823D4F7000083E2B8
:100A900090E0FC0180818823D4F31A8219827DC101
:100AA000000083E290E0FC0180818823D4F780E09D
:100AB00090E0A0EFB1E48CA39DA3AEA3BFA32BEA6B
:100AC0003AEA4AEA50E46CA17DA18EA19FA10E945E
:100AD0006E09DC01CB0188A799A7AAA7BBA720E0D4
:100AE00030E040E850E46CA17DA18EA19FA10E945E
:100AF0006E09DC01CB018CA79DA7AEA7BFA720E0A4
:100B000030E040E85FE368A579A58AA59BA50E942F
:100B10004E0888231CF481E088ABC6C020E03FEF7C
:100B20004FE757E46CA57DA58EA59FA50E94690996
:100B300018160CF07BC020E030E04AE754E46CA1CA
:100B40007DA18EA19FA10E945308DC01CB0189AB3E
:100B50009AABABABBCAB20E030E04AE755E469A907
:100B60007AA98BA99CA90E946E09DC01CB018DABEF
:100B70009EABAFABB8AF20E030E040E85FE36DA9DB
:100B80007EA98FA998AD0E944E0888232CF481E09D
:100B900090E09AAF89AF3FC020E03FEF4FE757E4C6
:100BA0006DA97EA98FA998AD0E94690918164CF508
:100BB00020E030E040E251E469A97AA98BA99CA920
:100BC0000E946E09DC01CB01BC01CD010E94C50869
:100BD000DC01CB019AAF89AF0FC080E991E09CAFF7
:100BE0008BAF8BAD9CAD0197F1F79CAF8BAF89AD0F
:100BF0009AAD01979AAF89AF89AD9AAD892B69F704
:100C000053C06DA97EA98FA998AD0E94C508DC01CB
:100C1000CB019AAF89AF89AD9AAD9EAF8DAF8DAD47
:100C20009EAD0197F1F79EAF8DAF3EC020E030E062
:100C30004FE753E468A579A58AA59BA50E94690999
:100C400018164CF56CA57DA58EA59FA50E94C5081C
:100C5000DC01CB019E01215C3F4FF9019183808330
:100C6000CE018F5B9F4F9E01215C3F4FF901208198
:100C70003181FC0131832083CE018F5B9F4FFC01CA
:100C8000808191810197F1F79E012F5B3F4FF90120
:100C9000918380831CC068A579A58AA59BA50E9425
:100CA000C508DC01CB0188ABCE018D5B9F4F28A925
:100CB000FC012083CE018D5B9F4FFC018081282F9A
:100CC0002A95F1F7CE018D5B9F4FFC01208383E2D3
:100CD00090E0FC01808188236CF589819A819923B9
:100CE0000CF4079695958795959587959595879595
:100CF0009C01CE018C5B9F4F820F931FFC01808172
:100D0000882F90E0880F991F482F416089819A8130
:100D100099230CF4079695958795959587959595C4
:100D200087959C01CE018C5B9F4F820F931FFC0126
:100D3000408327C089819A8199230CF40796959561
:100D4000879595958795959587959C01CE018C5BA8
:100D50009F4F820F931FFC01408189819A819923C3
:100D60000CF4079695958795959587959595879514
:100D70009C01440FCE018C5B9F4F820F931FFC019F
:100D80004083000083E290E0FC0180818823D4F35B
:100D900089819A8101969A83898389819A8188972A
:100DA0000CF47ECECE018C5B9F4FFC018081882F9E
:100DB00090E09E01275B3F4F4AE050E0B9010E945E
:100DC000DB09CE018C5B9F4FFC018181882F90E075
:100DD0009E012F5A3F4F4AE050E0B9010E94DB09C3
:100DE000CE018C5B9F4FFC018281882F90E09E0199
:100DF000275A3F4F4AE050E0B9010E94DB09CE017B
:100E00008C5B9F4FFC018381882F90E09E012F59BE
:100E10003F4F4AE050E0B9010E94DB09CE018C5BF4
:100E20009F4FFC018481882F90E09E0127593F4FFE
:100E30004AE050E0B9010E94DB09CE018C5B9F4F74
:100E4000FC012081CE018C5B9F4FFC018181280F2A
:100E5000CE018C5B9F4FFC018281280FCE018C5B01
:100E60009F4FFC018381820F8B838B81882F90E0C1
:100E70009E012F583F4F4AE050E0B9010E94DB0924
:100E8000CE018C5B9F4FFC0184819B819817A9F553
:100E90000E94D60180E091E00E94B403CE01875BFE
:100EA0009F4F0E94B4038AE091E00E94B403CE01F8
:100EB0008F5A9F4F0E94B4038CE091E00E94B403CC
:100EC00061E070E082E090E00E94E3038EE091E058
:100ED0000E94B403CE01875A9F4F0E94B4038AE058
:100EE00091E00E94B403CE018F599F4F0E94B4033A
:100EF00084E191E00E94B4031AC00E94D60186E109
:100F000091E00E94B403CE018F589F4F0E94B4031A
:100F100061E070E082E090E00E94E3038CE191E008
:100F20000E94B403CE0187599F4F0E94B403000072
:100F3000C858DF4F0FB6F894DEBF0FBECDBFDF91AC
:100F4000CF910895CF93DF93CDB7DEB72E970FB62D
:100F5000F894DEBF0FBECDBF8AE290E0FC01208195
:100F60008AE290E02064FC0120838BE290E0FC01A7
:100F700020818BE290E02064FC01208384E290E0F9
:100F8000FC01208184E290E02160FC01208385E265
:100F900090E0FC01208185E290E02160FC0120834B
:100FA00080E090E0A6E9B4E489839A83AB83BC83B4
:100FB00020E030E04AE755E469817A818B819C81A9
:100FC0000E946E09DC01CB018D839E83AF83B887BD
:100FD00020E030E040E85FE36D817E818F8198857D
:100FE0000E944E0888232CF481E090E09A8789873C
:100FF0003FC020E03FEF4FE757E46D817E818F8156
:1010000098850E94690918164CF520E030E040E20E
:1010100051E469817A818B819C810E946E09DC0197
:10102000CB01BC01CD010E94C508DC01CB019A8730
:1010300089870FC080E991E09C878B878B859C8591
:101040000197F1F79C878B8789859A8501979A8705
:10105000898789859A85892B69F714C06D817E817E
:101060008F8198850E94C508DC01CB019A8789870A
:1010700089859A859E878D878D859E850197F1F755
:101080009E878D8785E290E0FC01208185E290E0DB
:101090002E7FFC0120830E9427045ECF0E94F4086B
:1010A00008F481E008950E9467080C942F090E94BB
:1010B000280958F00E94210940F029F45F3F29F0E7
:1010C0000C94180951110C9463090C941E090E9488
:1010D000400968F39923B1F3552391F3951B550B00
:1010E000BB27AA2762177307840738F09F5F5F4FFB
:1010F000220F331F441FAA1FA9F335D00E2E3AF03A
:10110000E0E832D091505040E695001CCAF72BD051
:10111000FE2F29D0660F771F881FBB1F26173707A2
:101120004807AB07B0E809F0BB0B802DBF01FF27D4
:1011300093585F4F3AF09E3F510578F00C94180990
:101140000C9463095F3FE4F3983ED4F3869577955A
:101150006795B795F7959F5FC9F7880F911D96958D
:10116000879597F90895E1E0660F771F881FBB1FE9
:10117000621773078407BA0720F0621B730B840B96
:10118000BA0BEE1F88F7E09508950E94480988F091
:101190009F5798F0B92F9927B751B0F0E1F0660F3B
:1011A000771F881F991F1AF0BA95C9F714C0B1307C
:1011B00091F00E946209B1E008950C946209672FD2
:1011C000782F8827B85F39F0B93FCCF386957795AB
:1011D0006795B395D9F73EF4909580957095619594
:1011E0007F4F8F4F9F4F0895990F0008550FAA0BFF
:1011F000E0E8FEEF16161706E807F907C0F012162A
:101200001306E407F50798F0621B730B840B950B2C
:1012100039F40A2661F0232B242B252B21F4089581
:101220000A2609F4A140A6958FEF811D811D08951E
:1012300097F99F6780E870E060E008959FEF80EC89
:10124000089500240A94161617061806090608952C
:1012500000240A9412161306140605060895092E92
:101260000394000C11F4882352F0BB0F40F4BF2B01
:1012700011F460FF04C06F5F7F4F8F4F9F4F089541
:1012800057FD9058440F551F59F05F3F71F0479537
:10129000880F97FB991F61F09F3F79F0879508951C
:1012A000121613061406551FF2CF4695F1DF08C03B
:1012B000161617061806991FF1CF86957105610558
:1012C00008940895E894BB2766277727CB0197F900
:1012D00008950E94F40808F48FEF08950E94810990
:1012E0000C942F090E94210938F00E94280920F04F
:1012F000952311F00C9418090C941E0911240C94D8
:1013000063090E94400970F3959FC1F3950F50E067
:10131000551F629FF001729FBB27F00DB11D639FA7
:10132000AA27F00DB11DAA1F649F6627B00DA11D4D
:10133000661F829F2227B00DA11D621F739FB00DF3
:10134000A11D621F839FA00D611D221F749F332763
:10135000A00D611D231F849F600D211D822F762FFC
:101360006A2F11249F5750409AF0F1F088234AF0D9
:10137000EE0FFF1FBB1F661F771F881F9150504045
:10138000A9F79E3F510580F00C9418090C9463094D
:101390005F3FE4F3983ED4F3869577956795B795CC
:1013A000F795E7959F5FC1F7FE2B880F911D9695E6
:1013B000879597F908954532510520F4423010F091
:1013C0000C94E609FB011082CB010895BB274A303B
:1013D00031F4992322F4BDE2909581959F4F0C94AE
:1013E000F209BB27FB015527AA27880F991FAA1FBF
:1013F000A41710F0A41B83955051B9F7A05DAA3330
:1014000008F0A95DA193009779F7B111B1931192FA
:10141000CB010C940B0ADC01FC01672F719177233F
:10142000E1F7329704C07C916D9370836291AE179F
:0A143000BF07C8F30895F894FFCF3A
:10143A0048756D69646974793A002E00250054650F
:10144A006D703A00430073756D3A200073656E74CF
:04145A003A20000034
:00000001FF
